:100000000C942A000C943F000C943F000C943F0089
:100010000C943F000C943F000C943F000C943F0064
:100020000C943F000C943F000C943F000C943F0054
:100030000C943F000C943F000C943F000C943F0044
:100040000C943F000C943F000C943F000C943F0034
:100050000C943F0011241FBECFE5D4E0DEBFCDBF1E
:1000600010E0A0E6B0E0EEEBF0E002C005900D92EB
:10007000A437B107D9F70E9441000C945D000C949D
:1000800000008FEF84BB20E030E044E151E0F90153
:10009000EE0FFF1FE05AFF4F80818BBB88EB9BE088
:1000A000FA013197F1F70197D9F72F5F3F4F2A30C7
:0E00B000310568F320E030E0EACFF894FFCF8E
:1000BE00C000F900A400B000990092008200F80080
:0400CE00800090001E
:00000001FF
