:100000000C942A000C9434000C9434000C943400AA
:100010000C9434000C9434000C9434000C94340090
:100020000C9434000C9434000C9434000C94340080
:100030000C9434000C9434000C9434000C94340070
:100040000C9434000C9434000C9434000C94340060
:100050000C94340011241FBECFE5D4E0DEBFCDBF29
:100060000E9446000C9451000C94000080E090E047
:1000700045E033E621E043BF32BF08B600FEFDCFC6
:1000800028BF019684369105B1F708951F9381E04A
:1000900087BB11E018BA0E94360018BB0E943600D8
:0600A000F9CFF894FFCF38
:00000001FF
