:100000000C942A000C9447000C9447000C94470071
:100010000C9447000C9447000C9447000C94470044
:100020000C9447000C9447000C9447000C94470034
:100030000C9447000C9447000C9447000C94470024
:100040000C9447000C9447000C9447000C94470014
:100050000C94470011241FBECFE5D4E0DEBFCDBF16
:1000600010E0A0E6B0E0EAE9F4E002C005900D92ED
:10007000A63FB107D9F711E0A6EFB0E001C01D928D
:10008000A830B107E1F70E949E000C944B020C943B
:10009000000010BC82E089B9599A8AB188618AB996
:1000A00080B5866880BD08955D9BFECF8CB988EBD6
:1000B0009BE00197F1F708955F9BFECF8CB1089507
:1000C000FC0128EB3BE007C05D9BFECF31968CB96D
:1000D000C9010197F1F780818823B1F708959C0148
:1000E00090E05F9BFECF8CB1F901E90FF11D808399
:1000F000861711F09F5FF5CF1082C90108955D9BAF
:10010000FECF8CB988EB9BE00197F1F708955F9BD8
:10011000FECF8CB108950E94600008959C0190E08C
:100120005F9BFECF8CB1F901E90FF11D808386172B
:1001300011F09F5FF5CF1082C90108950E94490018
:1001400028EB3BE05F9BFECF8CB15D9BFECF8CB973
:10015000C9010197F1F7F6CF0F931F938C0180E649
:1001600090E00E946000C8010E946000E5E0F1E0BC
:100170005F9BFECF8CB1819381E0E730F807C1F738
:100180001082E6EFF0E05F9BFECF8CB1819380E0C0
:10019000EC3FF807C1F7108285E091E067E670E078
:1001A0000E9442029C0180E0232B09F481E01F9110
:1001B0000F910895EF92FF920F931F937B018C0193
:1001C00080EBE81684E0F80680E0080780E0180776
:1001D00019F48AE690E017C080E6E81689E0F80690
:1001E00080E0080780E0180719F483E790E00BC06F
:1001F00080ECE81682E1F80680E0080780E0180746
:1002000039F48CE790E00E946000E5E0F1E06DC019
:1002100080E8E81685E2F80680E0080780E0180725
:1002200019F485E890E0EFCF80E0E8168BE4F8065B
:1002300080E0080780E0180719F48EE890E0E3CF2B
:1002400080E0E81686E9F80680E0080780E01807F5
:1002500019F487E990E0D7CF80E0E81681EEF80640
:1002600080E0080780E0180719F480EA90E0CBCF1F
:1002700080E0E81682ECF80681E0080780E01807C5
:1002800019F489EA90E0BFCF80E0E81684E8F80628
:1002900083E0080780E0180719F482EB90E0B3CF01
:1002A00080E0E81688E0F80687E0080780E0180795
:1002B00019F48BEB90E0A7CF80E0E81680E1F80618
:1002C0008EE0080780E0180719F484EC90E09BCFDB
:1002D00080E0E81688E1F80685E1080780E0180765
:1002E00009F093CF8DEC90E08ECF5F9BFECF8CB169
:1002F000819381E0E730F807C1F7108281E8E816C2
:1003000085E2F80680E0080780E018075CF4E6EF75
:10031000F0E05F9BFECF8CB1819380E0EA3FF8076D
:10032000C1F73BC081E0E81681EEF80680E00807DF
:1003300080E018075CF4E6EFF0E05F9BFECF8CB145
:10034000819380E0EB3FF807C1F727C081E0E81612
:1003500080E1F8068EE0080780E018075CF4E6EF1D
:10036000F0E05F9BFECF8CB1819380E0EC3FF8071B
:10037000C1F713C080E0E81688E1F80685E10807B8
:1003800080E0180759F4E6EFF0E05F9BFECF8CB1F8
:10039000819380E0ED3FF807C1F7108285E091E09E
:1003A00067E670E00E9442029C0180E0232B09F482
:1003B00081E01F910F91FF90EF90089586ED90E0FE
:1003C0000E946000E5E0F1E05F9BFECF8CB181937D
:1003D00081E0E730F807C1F71082E6EFF0E05F9BBD
:1003E000FECF8CB1819381E0E030F807C1F7108235
:1003F00085E091E067E670E00E9442029C0180E0A7
:10040000232B09F481E008950F931F938C0181EE53
:1004100090E00E946000C8010E946000E6EFF0E0FA
:100420005F9BFECF8CB1819380E0EF3FF807C1F76F
:100430001082CF01099769EE70E00E9442029C0190
:1004400080E0232B09F481E01F910F91089583EF41
:1004500090E00E946000E5E0F1E05F9BFECF8CB190
:10046000819381E0E730F807C1F71082CF0102974E
:1004700067E670E00E9442029C0180E0232B09F4B1
:1004800081E00895FB01DC018D910190801901103C
:0A049000D9F3990B0895F894FFCFFB
:10049A0041542B50494E004F4B0041542B42415579
:1004AA0044310041542B42415544320041542B42BD
:1004BA00415544330041542B424155443400415480
:1004CA002B42415544350041542B42415544360094
:1004DA0041542B42415544370041542B4241554423
:1004EA00380041542B42415544390041542B424172
:1004FA005544410041542B42415544420041542B3A
:10050A0042415544430041542B56455253494F4E9C
:10051A000041542B4E414D45004F4B7365746E613B
:06052A006D650041540064
:00000001FF
