:100000000C942A000C9449000C9447000C9447006F
:100010000C9447000C9447000C9447000C94470044
:100020000C9447000C9447000C9447000C94470034
:100030000C9447000C9447000C9447000C94470024
:100040000C9447000C9447000C9447000C94470014
:100050000C94470011241FBECFE5D4E0DEBFCDBF16
:1000600010E0A0E6B0E0EEEBF2E002C005900D92E9
:10007000AE37B107D9F710E0AEE7B0E001C01D928E
:10008000A238B107E1F70E94A0000C945D010C9426
:1000900000001F920F920FB60F9211248F939F931F
:1000A0008091800090918100019769F41EBC8CB50D
:1000B0009DB590937F0080937E001DBC1CBC109268
:1000C0008100109280008091800090918100892BA6
:1000D00049F48EB581608EBD81E090E090938100FF
:1000E000809380009F918F910F900FBE0F901F9073
:1000F000189588BB9698959A80ED97E00197F1F74F
:1001000082B3807C82BB18BA089588BB80E482BB2E
:1001100080E282BB80ED97E00197F1F782B3807CAB
:1001200082BB18BA0895CF93DF93EC0103C02196E8
:100130000E94850088818823D1F7DF91CF910895AF
:10014000CF92DF92EF92FF920F931F93DF93CF93A3
:10015000CDB7DEB760970FB6F894DEBF0FBECDBF48
:100160008FEF8ABB87BB8BEF81BB04ED10E3C80127
:100170000197F1F780E48BBF81E085BF1FBC0E942F
:100180007900C8010197F1F788E30E947900C8015E
:100190000197F1F78FE00E947900C8010197F1F70C
:1001A0007894CC24C39485E0D82E7E010894E11C79
:1001B000F11CC2BA8D2D8A95F1F7909880917E003E
:1001C00090917F006AE370E00E940501162F072FCF
:1001D00080E690E00E94930080EC0E9479008CE61B
:1001E00090E00E949300812F902FB7014AE050E0E9
:1001F0000E942C01C7010E94930086E790E00E94B4
:10020000930080E80E947900D4CF97FB092E07263F
:100210000AD077FD04D00CD006D000201AF47095D7
:1002200061957F4F0895F6F7909581959F4F0895BA
:10023000AA1BBB1B51E107C0AA1FBB1FA617B7070C
:1002400010F0A61BB70B881F991F5A95A9F7809528
:100250009095BC01CD010895FB019F01E8944230C7
:10026000C4F04532B4F44A3029F497FB1EF490955B
:1002700081959F4F642F77270E941801805D8A33F4
:100280000CF0895D8193CB010097A1F716F45DE234
:1002900051931082C9010C944D01DC01FC01672FC0
:1002A00071917723E1F7329704C07C916D9370834D
:0E02B0006291AE17BF07C8F30895F894FFCF10
:1002BE00556C74726120736F6E69630044495354B8
:0E02CE00414E43453D00636D2020202000007E
:00000001FF
