:100000000C942A000C943F000C943F000C943F0089
:100010000C943F000C943F000C943F000C943F0064
:100020000C943F000C943F000C943F000C943F0054
:100030000C943F000C943F000C943F000C943F0044
:100040000C943F000C943F000C943F000C943F0034
:100050000C943F0011241FBECFE5D4E0DEBFCDBF1E
:1000600010E0A0E6B0E0EEE0F1E002C005900D92F5
:10007000AC36B107D9F70E9477000C9485000C9438
:10008000000010BC82E089B9599A8AB188618AB9A6
:1000900080B5866880BD08955D9BFECF8CB988EBE6
:1000A0009BE00197F1F708955F9BFECF8CB1089517
:1000B000FC0128EB3BE007C05D9BFECF31968CB97D
:1000C000C9010197F1F780818823B1F708959C0158
:1000D00090E05F9BFECF8CB1F901E90FF11D8083A9
:1000E000861711F09F5FF5CF1082C9010895CF9355
:1000F000DF930E944100C0E3D5E780E690E00E94D4
:0E0100005800CE010197F1F7F8CFF894FFCF29
:0C010E004E534F4320342E300A0D0000E9
:00000001FF
