:100000000C942A000C9434000C9434000C943400AA
:100010000C9434000C9434000C9434000C94340090
:100020000C9434000C9434000C9434000C94340080
:100030000C9434000C9434000C9434000C94340070
:100040000C9434000C9434000C9434000C94340060
:100050000C94340011241FBECFE5D4E0DEBFCDBF29
:100060000E9462000C9439010C94000086EE86B95F
:10007000089590E497B997B1982B97B988EB9BE0D6
:100080000197F1F794B185B1382F20E0290F311D88
:10009000C901089588BB84E082BB88EB9BE0FC012A
:1000A0003197F1F712BA0197F1F7089588BB85E00F
:1000B00082BB88EB9BE0FC013197F1F712BA019704
:1000C000F1F708954F925F926F927F928F929F9275
:1000D000AF92BF92CF92DF92EF92FF920F931F9356
:1000E000DF93CF93CDB7DEB72A970FB6F894DEBF74
:1000F0000FBECDBF8FEF87BB81BB8CE088BB94E088
:1001000092BB28EB3BE0F9013197F1F712BAF90104
:100110003197F1F781E088BB92BBF9013197F1F794
:1001200012BAF9013197F1F780E888BB92BBF90167
:100130003197F1F712BAF9013197F1F788E388BBEB
:1001400092BBC9010197F1F712BAC9010197F1F702
:1001500086EE86B950E4452E48EBE42E4BE0F42EB3
:100160006E010894C11CD11C35E0532E25E0822E6F
:10017000912C8C0E9D1E9CE2A92E91E0B92E662436
:10018000639484E0782E47B8389AC7010197F1F755
:1001900094B185B1182F00E09801290F311DC901D4
:1001A000B6014AE050E00E94F400F601819188BB5C
:1001B00052BAC7010197F1F712BAC7010197F1F7D7
:1001C000E815F90599F784EF91E0F5013197F1F71A
:1001D0000197D9F768BA72BAC7010197F1F712BA55
:1001E000C7010197F1F7CFCFFB019F01E89442309F
:1001F000C4F04532B4F44A3029F497FB1EF49095CC
:1002000081959F4F642F77270E942501805D8A3357
:100210000CF0895D8193CB010097A1F716F45DE2A4
:1002200051931082C9010C941501DC01FC01672F68
:1002300071917723E1F7329704C07C916D937083BD
:100240006291AE17BF07C8F30895AA1BBB1B51E10B
:1002500007C0AA1FBB1FA617B70710F0A61BB70B36
:10026000881F991F5A95A9F780959095BC01CD01DB
:060270000895F894FFCF91
:00000001FF
