:100000000C942A000C9434000C9434000C943400AA
:100010000C9434000C9434000C9434000C94340090
:100020000C9434000C9434000C9434000C94340080
:100030000C9434000C9434000C9434000C94340070
:100040000C9434000C9434000C9434000C94340060
:100050000C94340011241FBECFE5D4E0DEBFCDBF29
:100060000E9442000C944D000C94000082EC8DBD67
:1000700087EF8CBD85E08EBD08B602FEFDCF84E023
:1000800088BF08951F9381E087BB11E018BA0E94D2
:0E009000360018BB0E943600F9CFF894FFCF5F
:00000001FF
