:100000000C942A000C9434000C9434000C943400AA
:100010000C9434000C9434000C9434000C94340090
:100020000C9434000C9434000C9434000C94340080
:100030000C9434000C9434000C9434000C94340070
:100040000C9434000C9434000C9434000C94340060
:100050000C94340011241FBECFE5D4E0DEBFCDBF29
:100060000E944A000C948C000C94000086EE86B925
:10007000089590E497B997B1982B97B988EB9BE0D6
:100080000197F1F794B185B1382F20E0290F311D88
:10009000C9010895EF92FF920F931F93CF93DF93BF
:1000A00086EE86B98FEF81BBA0E4E8EBFBE094E03D
:1000B000F92E02E016E089E0E82EA7B987B187B9EA
:1000C000CF010197F1F794B185B1582F40E0BA0103
:1000D000690F711DA7B9389ACF010197F1F794B153
:1000E00085B1382F20E0E901C90FD11DCE01B2E062
:1000F00065307B070CF0F2BA645072400CF402BB1E
:1001000062E0813196070CF412BB8251924014F0E8
:0C011000E2BAD3CF12BAD1CFF894FFCFDF
:00000001FF
