:100000000C942A000C943F000C943F000C943F0089
:100010000C943F000C943F000C943F000C943F0064
:100020000C943F000C943F000C943F000C943F0054
:100030000C943F000C943F000C943F000C943F0044
:100040000C943F000C943F000C943F000C943F0034
:100050000C943F0011241FBECFE5D4E0DEBFCDBF1E
:1000600010E0A0E6B0E0E4EFF1E002C005900D92F0
:10007000A436B107D9F70E94D2000C94F8000C9472
:1000800000005F9BFECF8CB1089520E030E00000BF
:100090000000000000000000000000000000000060
:1000A00000002F5F3F4F8217930788F708958CB9A0
:1000B0005E9BFECF88EE93E00E9445000895CF92AC
:1000C000DF92EF92FF920F931F93CF93DF93EC0198
:1000D00068EE73E00E94E400462F262F30E088E1AE
:1000E0009CEF289F7001299FF00C389FF00C112481
:1000F000F701EC0FFD1FCF0164E670E00E94E40001
:10010000D62E262F30E08CE99FEF289F8001299F73
:10011000100D389F100D1124CF01800F911F6AE040
:1001200070E00E94E400C62E442321F0842F805DFD
:100130000E9457008D2D805D0E9457008C2D805DA0
:100140000E945700CE01805D282F2E0D200F86EFD4
:100150009FEFC89E802D1124820F0E945700DF91CF
:10016000CF911F910F91FF90EF90DF90CF90089566
:10017000CF93DF93EC0103C021960E945700888142
:100180008823D1F7DF91CF9108951BB888E18AB910
:1001900086E880BD10BC83E389B988EE93E00E94B5
:1001A00045000895CF93DF930E94C500C0E3D5E7D3
:1001B0008AE090E00E945F0080E690E00E94B80034
:1001C000CE010197F1F7F4CFAA1BBB1B51E107C089
:1001D000AA1FBB1FA617B70710F0A61BB70B881FD7
:1001E000991F5A95A9F780959095BC01CD01089566
:0401F000F894FFCFB1
:0401F4000A0D0000F0
:00000001FF
