:100000000C942A000C9436000C9434000C943400A8
:100010000C9434000C9434000C9434000C94340090
:100020000C9434000C9434000C9434000C94340080
:100030000C9434000C9434000C9434000C94340070
:100040000C9434000C9434000C9434000C94340060
:100050000C94340011241FBECFE5D4E0DEBFCDBF29
:100060000E9460000C947D000C9400001F920F927F
:100070000FB60F9211242F933F934F935F936F937B
:100080008F939F9320E030E061E040E355E768BB49
:10009000CA010197F1F718BACA010197F1F72F5F6A
:1000A0003F4F2430310599F79F918F916F915F9168
:1000B0004F913F912F910F900FBE0F901F90189569
:1000C00081E081BB94E092BB87BB85BF80E48BBF9E
:1000D00078942CE231E041E018BA88EE93E0F9011F
:1000E0003197F1F70197D9F748BB88EE93E0F90112
:0E00F0003197F1F70197D9F7EFCFF894FFCFD2
:00000001FF
