:100000000C942A000C9447000C9447000C94470071
:100010000C9447000C9447000C9447000C94470044
:100020000C9447000C9447000C9447000C94470034
:100030000C9447000C9447000C9447000C94470024
:100040000C9447000C9447000C9447000C94470014
:100050000C94470011241FBECFE5D4E0DEBFCDBF16
:1000600010E0A0E6B0E0EAEDF4E002C005900D92E9
:10007000AA3FB107D9F711E0AAEFB0E001C01D9285
:10008000AC30B107E1F70E949E000C946B020C9417
:10009000000010BC82E089B9599A8AB188618AB996
:1000A00080B5866880BD08955D9BFECF8CB988EBD6
:1000B0009BE00197F1F708955F9BFECF8CB1089507
:1000C000FC0128EB3BE007C05D9BFECF31968CB96D
:1000D000C9010197F1F780818823B1F708959C0148
:1000E00090E05F9BFECF8CB1F901E90FF11D808399
:1000F000861711F09F5FF5CF1082C90108955D9BAF
:10010000FECF8CB988EB9BE00197F1F708955F9BD8
:10011000FECF8CB108950E94600008959C0190E08C
:100120005F9BFECF8CB1F901E90FF11D808386172B
:1001300011F09F5FF5CF1082C9010895DF93CF932F
:1001400000D00F92CDB7DEB70E94490080E690E064
:100150000E946000FE0131969E012D5F3F4F5F9B24
:10016000FECF8CB18193E217F307C9F71B82CE0152
:10017000019663E670E00E946202009719F483E63C
:1001800090E002C086E690E00E9460000F900F9021
:100190000F90CF91DF9108950F931F938C018AE602
:1001A00090E00E946000C8010E946000E9E0F1E078
:1001B0005F9BFECF8CB1819381E0EB30F807C1F7F4
:1001C0001082EAEFF0E05F9BFECF8CB1819381E07B
:1001D000E030F807C1F7108289E091E063E670E053
:1001E0000E9462029C0180E0232B09F481E01F91B0
:1001F0000F910895EF92FF920F931F937B018C0153
:1002000080EBE81684E0F80680E0080780E0180735
:1002100019F481E790E017C080E6E81689E0F80657
:1002200080E0080780E0180719F48AE790E00BC027
:1002300080ECE81682E1F80680E0080780E0180705
:1002400039F483E890E00E946000E9E0F1E06DC0DD
:1002500080E8E81685E2F80680E0080780E01807E5
:1002600019F48CE890E0EFCF80E0E8168BE4F80614
:1002700080E0080780E0180719F485E990E0E3CFF3
:1002800080E0E81686E9F80680E0080780E01807B5
:1002900019F48EE990E0D7CF80E0E81681EEF806F9
:1002A00080E0080780E0180719F487EA90E0CBCFD8
:1002B00080E0E81682ECF80681E0080780E0180785
:1002C00019F480EB90E0BFCF80E0E81684E8F806F0
:1002D00083E0080780E0180719F489EB90E0B3CFBA
:1002E00080E0E81688E0F80687E0080780E0180755
:1002F00019F482EC90E0A7CF80E0E81680E1F806E0
:100300008EE0080780E0180719F48BEC90E09BCF93
:1003100080E0E81688E1F80685E1080780E0180724
:1003200009F093CF84ED90E08ECF5F9BFECF8CB130
:10033000819381E0EB30F807C1F7108281E8E8167D
:1003400085E2F80680E0080780E018075CF4EAEF31
:10035000F0E05F9BFECF8CB1819380E0EE3FF80729
:10036000C1F73BC081E0E81681EEF80680E008079F
:1003700080E018075CF4EAEFF0E05F9BFECF8CB101
:10038000819380E0EF3FF807C1F727C081E0E816CE
:1003900080E1F8068EE0080780E018075CF4EAEFD9
:1003A000F0E05F9BFECF8CB1819381E0E030F807F5
:1003B000C1F713C080E0E81688E1F80685E1080778
:1003C00080E0180759F4EAEFF0E05F9BFECF8CB1B4
:1003D000819381E0E130F807C1F7108289E091E074
:1003E00063E670E00E9462029C0180E0232B09F426
:1003F00081E01F910F91FF90EF9008958DED90E0B7
:100400000E946000E9E0F1E05F9BFECF8CB1819338
:1004100081E0EB30F807C1F71082EAEFF0E05F9B74
:10042000FECF8CB1819381E0E430F807C1F71082F0
:1004300089E091E063E670E00E9462029C0180E046
:10044000232B09F481E008950F931F938C0188EE0C
:1004500090E00E946000C8010E946000EAEFF0E0B6
:100460005F9BFECF8CB1819381E0E330F807C1F749
:100470001082CF01099760EF70E00E9462029C0138
:1004800080E0232B09F481E01F910F91089580E60D
:1004900090E00E946000E9E0F1E05F9BFECF8CB14C
:1004A000819381E0EB30F807C1F71082CF0102970A
:1004B00063E670E00E9462029C0180E0232B09F455
:1004C00081E00895FB01DC018D91019080190110FC
:0A04D000D9F3990B0895F894FFCFBB
:1004DA004154004F4B004E4F540041542B50494E4B
:1004EA000041542B42415544310041542B4241555D
:1004FA0044320041542B42415544330041542B426B
:10050A00415544340041542B42415544350041542D
:10051A002B42415544360041542B42415544370041
:10052A0041542B42415544380041542B42415544D1
:10053A00390041542B42415544410041542B424118
:10054A005544420041542B42415544430041542BE7
:10055A0056455253494F4E0041542B4E414D45008A
:0A056A004F4B7365746E616D650000
:00000001FF
