:100000000C942A000C9434000C9434000C943400AA
:100010000C9434000C9434000C9434000C94340090
:100020000C9434000C9434000C9434000C94340080
:100030000C9434000C9434000C9434000C94340070
:100040000C9434000C9434000C9434000C94340060
:100050000C94340011241FBECFE5D4E0DEBFCDBF29
:100060000E9436000C944C000C9400008FEF87BB6C
:100070004FEF2CE231E048BB80E197E2F901319784
:10008000F1F70197D9F718BA80E197E2F9013197B2
:0C009000F1F70197D9F7EFCFF894FFCFFC
:00000001FF
