:100000000C942A000C9434000C9434000C943400AA
:100010000C9434000C9434000C9434000C94340090
:100020000C9434000C9434000C9434000C94340080
:100030000C9434000C9434000C9434000C94340070
:100040000C9434000C9434000C9434000C94340060
:100050000C94340011241FBECFE5D4E0DEBFCDBF29
:100060000E9447000C9452000C94000080E090E045
:1000700045E03DE922E043BF3CBF08B601FEFDCFAD
:1000800028BF12BE019684369105A9F708951F93E3
:1000900081E087BB11E018BA0E94360018BB0E94AD
:0800A0003600F9CFF894FFCF00
:00000001FF
