:100000000C942A000C943F000C943F000C943F0089
:100010000C943F000C943F000C943F000C943F0064
:100020000C943F000C943F000C943F000C943F0054
:100030000C943F000C943F000C943F000C943F0044
:100040000C943F000C943F000C943F000C943F0034
:100050000C943F0011241FBECFE5D4E0DEBFCDBF1E
:1000600010E0A0E6B0E0E6E8F2E002C005900D92F4
:10007000A436B107D9F70E94E6000C9441010C9414
:10008000000086EE86B9089590E497B997B1982B51
:1000900097B988EB9BE00197F1F794B185B1382FC0
:1000A00020E0290F311DC90108955F9BFECF8CB15F
:1000B000089520E030E00000000000000000000093
:1000C000000000000000000000002F5F3F4F82177B
:1000D000930788F708958CB95E9BFECF88EE93E076
:1000E0000E9459000895CF92DF92EF92FF920F93F2
:1000F0001F93CF93DF93EC0168EE73E00E942D0114
:10010000462F262F30E088E19CEF289F7001299F21
:10011000F00C389FF00C1124F701EC0FFD1FCF01FC
:1001200064E670E00E942D01D62E262F30E08CE987
:100130009FEF289F8001299F100D389F100D1124DB
:10014000CF01800F911F6AE070E00E942D01C62E42
:10015000442321F0842F805D0E946B008D2D805DF3
:100160000E946B008C2D805D0E946B00CE01805D33
:10017000282F2E0D200F86EF9FEFC89E802D112473
:10018000820F0E946B00DF91CF911F910F91FF9022
:10019000EF90DF90CF900895CF93DF93EC0103C0F1
:1001A00021960E946B0088818823D1F7DF91CF913F
:1001B00008951BB888E18AB986E880BD10BC83E346
:1001C00089B988EE93E00E94590008958F929F921A
:1001D000AF92BF92CF92DF92EF92FF920F931F9355
:1001E000CF93DF930E94D90086EE86B920E4E22EF9
:1001F00098EBA92E9BE0B92E8CE2882E81E0982EF8
:10020000E7B887B187B9C5010197F1F784B190E0EC
:1002100025B1E7B8389AF5013197F1F704B110E04C
:10022000F5B0D22ECC248C0D9D1D0E94730089E068
:100230000E946B00DF2DC0E0CE01800F911F0E9455
:10024000730080E690E00E94CC0088EE93E0F40119
:100250003197F1F70197D9F7D3CFAA1BBB1B51E117
:1002600007C0AA1FBB1FA617B70710F0A61BB70B26
:10027000881F991F5A95A9F780959095BC01CD01CB
:060280000895F894FFCF81
:040286000A0D00005D
:00000001FF
